{
  "contractName": "DecentralizedEscrow",
  "abi": [
    {
      "inputs": [
        {
          "internalType": "address",
          "name": "_seller",
          "type": "address"
        },
        {
          "internalType": "address",
          "name": "_arbiter",
          "type": "address"
        }
      ],
      "stateMutability": "payable",
      "type": "constructor"
    },
    {
      "inputs": [],
      "name": "amount",
      "outputs": [
        {
          "internalType": "uint256",
          "name": "",
          "type": "uint256"
        }
      ],
      "stateMutability": "view",
      "type": "function"
    },
    {
      "inputs": [],
      "name": "arbiter",
      "outputs": [
        {
          "internalType": "address",
          "name": "",
          "type": "address"
        }
      ],
      "stateMutability": "view",
      "type": "function"
    },
    {
      "inputs": [],
      "name": "buyer",
      "outputs": [
        {
          "internalType": "address",
          "name": "",
          "type": "address"
        }
      ],
      "stateMutability": "view",
      "type": "function"
    },
    {
      "inputs": [],
      "name": "isDisputed",
      "outputs": [
        {
          "internalType": "bool",
          "name": "",
          "type": "bool"
        }
      ],
      "stateMutability": "view",
      "type": "function"
    },
    {
      "inputs": [],
      "name": "seller",
      "outputs": [
        {
          "internalType": "address",
          "name": "",
          "type": "address"
        }
      ],
      "stateMutability": "view",
      "type": "function"
    },
    {
      "inputs": [],
      "name": "confirmReceipt",
      "outputs": [],
      "stateMutability": "nonpayable",
      "type": "function"
    },
    {
      "inputs": [],
      "name": "dispute",
      "outputs": [],
      "stateMutability": "nonpayable",
      "type": "function"
    },
    {
      "inputs": [
        {
          "internalType": "bool",
          "name": "releaseToSeller",
          "type": "bool"
        }
      ],
      "name": "resolveDispute",
      "outputs": [],
      "stateMutability": "nonpayable",
      "type": "function"
    }
  ],
  "bytecode": "0x6080604052604051610b28380380610b2883398181016040528101906100259190610169565b335f806101000a81548173ffffffffffffffffffffffffffffffffffffffff021916908373ffffffffffffffffffffffffffffffffffffffff1602179055508160015f6101000a81548173ffffffffffffffffffffffffffffffffffffffff021916908373ffffffffffffffffffffffffffffffffffffffff1602179055508060025f6101000a81548173ffffffffffffffffffffffffffffffffffffffff021916908373ffffffffffffffffffffffffffffffffffffffff160217905550346003819055505f60045f6101000a81548160ff02191690831515021790555050506101a7565b5f80fd5b5f73ffffffffffffffffffffffffffffffffffffffff82169050919050565b5f6101388261010f565b9050919050565b6101488161012e565b8114610152575f80fd5b50565b5f815190506101638161013f565b92915050565b5f806040838503121561017f5761017e61010b565b5b5f61018c85828601610155565b925050602061019d85828601610155565b9150509250929050565b610974806101b45f395ff3fe608060405234801561000f575f80fd5b5060043610610086575f3560e01c806389e1e82a1161005957806389e1e82a146100ee578063aa8c217c1461010a578063f240f7c314610128578063fe25e00a1461013257610086565b80630335729e1461008a57806308551a53146100a85780637150d8ae146100c65780637d94ad98146100e4575b5f80fd5b610092610150565b60405161009f9190610605565b60405180910390f35b6100b0610162565b6040516100bd919061065d565b60405180910390f35b6100ce610187565b6040516100db919061065d565b60405180910390f35b6100ec6101aa565b005b610108600480360381019061010391906106a4565b6102ef565b005b6101126104c0565b60405161011f91906106e7565b60405180910390f35b6101306104c6565b005b61013a6105c6565b604051610147919061065d565b60405180910390f35b60045f9054906101000a900460ff1681565b60015f9054906101000a900473ffffffffffffffffffffffffffffffffffffffff1681565b5f8054906101000a900473ffffffffffffffffffffffffffffffffffffffff1681565b5f8054906101000a900473ffffffffffffffffffffffffffffffffffffffff1673ffffffffffffffffffffffffffffffffffffffff163373ffffffffffffffffffffffffffffffffffffffff1614610237576040517f08c379a000000000000000000000000000000000000000000000000000000000815260040161022e9061075a565b60405180910390fd5b60045f9054906101000a900460ff1615610286576040517f08c379a000000000000000000000000000000000000000000000000000000000815260040161027d906107c2565b60405180910390fd5b60015f9054906101000a900473ffffffffffffffffffffffffffffffffffffffff1673ffffffffffffffffffffffffffffffffffffffff166108fc60035490811502906040515f60405180830381858888f193505050501580156102ec573d5f803e3d5ffd5b50565b60025f9054906101000a900473ffffffffffffffffffffffffffffffffffffffff1673ffffffffffffffffffffffffffffffffffffffff163373ffffffffffffffffffffffffffffffffffffffff161461037e576040517f08c379a000000000000000000000000000000000000000000000000000000000815260040161037590610850565b60405180910390fd5b60045f9054906101000a900460ff166103cc576040517f08c379a00000000000000000000000000000000000000000000000000000000081526004016103c3906108b8565b60405180910390fd5b801561043e5760015f9054906101000a900473ffffffffffffffffffffffffffffffffffffffff1673ffffffffffffffffffffffffffffffffffffffff166108fc60035490811502906040515f60405180830381858888f19350505050158015610438573d5f803e3d5ffd5b506104a4565b5f8054906101000a900473ffffffffffffffffffffffffffffffffffffffff1673ffffffffffffffffffffffffffffffffffffffff166108fc60035490811502906040515f60405180830381858888f193505050501580156104a2573d5f803e3d5ffd5b505b5f60045f6101000a81548160ff02191690831515021790555050565b60035481565b5f8054906101000a900473ffffffffffffffffffffffffffffffffffffffff1673ffffffffffffffffffffffffffffffffffffffff163373ffffffffffffffffffffffffffffffffffffffff16148061056b575060015f9054906101000a900473ffffffffffffffffffffffffffffffffffffffff1673ffffffffffffffffffffffffffffffffffffffff163373ffffffffffffffffffffffffffffffffffffffff16145b6105aa576040517f08c379a00000000000000000000000000000000000000000000000000000000081526004016105a190610920565b60405180910390fd5b600160045f6101000a81548160ff021916908315150217905550565b60025f9054906101000a900473ffffffffffffffffffffffffffffffffffffffff1681565b5f8115159050919050565b6105ff816105eb565b82525050565b5f6020820190506106185f8301846105f6565b92915050565b5f73ffffffffffffffffffffffffffffffffffffffff82169050919050565b5f6106478261061e565b9050919050565b6106578161063d565b82525050565b5f6020820190506106705f83018461064e565b92915050565b5f80fd5b610683816105eb565b811461068d575f80fd5b50565b5f8135905061069e8161067a565b92915050565b5f602082840312156106b9576106b8610676565b5b5f6106c684828501610690565b91505092915050565b5f819050919050565b6106e1816106cf565b82525050565b5f6020820190506106fa5f8301846106d8565b92915050565b5f82825260208201905092915050565b7f4f6e6c792062757965722063616e20636f6e6669726d207265636569707400005f82015250565b5f610744601e83610700565b915061074f82610710565b602082019050919050565b5f6020820190508181035f83015261077181610738565b9050919050565b7f5472616e73616374696f6e2069732064697370757465640000000000000000005f82015250565b5f6107ac601783610700565b91506107b782610778565b602082019050919050565b5f6020820190508181035f8301526107d9816107a0565b9050919050565b7f4f6e6c7920617262697465722063616e207265736f6c766520646973707574655f8201527f7300000000000000000000000000000000000000000000000000000000000000602082015250565b5f61083a602183610700565b9150610845826107e0565b604082019050919050565b5f6020820190508181035f8301526108678161082e565b9050919050565b7f4e6f206469737075746520746f207265736f6c766500000000000000000000005f82015250565b5f6108a2601583610700565b91506108ad8261086e565b602082019050919050565b5f6020820190508181035f8301526108cf81610896565b9050919050565b7f4f6e6c79206275796572206f722073656c6c65722063616e20646973707574655f82015250565b5f61090a602083610700565b9150610915826108d6565b602082019050919050565b5f6020820190508181035f830152610937816108fe565b905091905056fea26469706673582212204237f775b02dab4f8a06b9fb3a3f6018ed58baebed5b72ba161099b114bafdad64736f6c63430008150033",
  "immutableReferences": {},
  "source": "// SPDX-License-Identifier: MIT\r\npragma solidity ^0.8.0;\r\n\r\n// This contract implements a simple decentralized escrow system\r\ncontract DecentralizedEscrow {\r\n    // State variables to store the addresses of the buyer, seller, and arbiter\r\n    address public buyer;\r\n    address public seller;\r\n    address public arbiter;\r\n    // State variable to store the amount of ether in escrow\r\n    uint256 public amount;\r\n    // State variable to track if the transaction is disputed\r\n    bool public isDisputed;\r\n\r\n    // Constructor to initialize the contract with the seller and arbiter addresses\r\n    // The buyer is the address deploying the contract and sending ether\r\n    constructor(address _seller, address _arbiter) payable {\r\n        buyer = msg.sender; // The buyer is the contract deployer\r\n        seller = _seller; // The seller's address\r\n        arbiter = _arbiter; // The arbiter's address\r\n        amount = msg.value; // The amount of ether sent to the contract\r\n        isDisputed = false; // Initially, there is no dispute\r\n    }\r\n\r\n    // Function for the buyer to confirm receipt of goods/services\r\n    function confirmReceipt() external {\r\n        require(msg.sender == buyer, \"Only buyer can confirm receipt\"); // Only the buyer can call this\r\n        require(!isDisputed, \"Transaction is disputed\"); // Cannot confirm if there is a dispute\r\n        //implement for Commission send to arbiter\r\n        // based on karma based off of the buyer\r\n        payable(seller).transfer(amount); // Transfer the escrowed amount to the seller\r\n    }\r\n\r\n    // Function to raise a dispute by either the buyer or the seller\r\n    function dispute() external {\r\n        require(\r\n            msg.sender == buyer || msg.sender == seller,\r\n            \"Only buyer or seller can dispute\"\r\n        ); // Only buyer or seller can dispute\r\n        isDisputed = true; // Set the dispute flag to true\r\n    }\r\n\r\n    // Function for the arbiter to resolve a dispute\r\n    // The arbiter decides whether to release funds to the seller or refund the buyer\r\n    function resolveDispute(bool releaseToSeller) external {\r\n        require(msg.sender == arbiter, \"Only arbiter can resolve disputes\"); // Only the arbiter can resolve disputes\r\n        require(isDisputed, \"No dispute to resolve\"); // There must be a dispute to resolve\r\n        if (releaseToSeller) {\r\n            payable(seller).transfer(amount); // Transfer funds to the seller if true\r\n        } else {\r\n            payable(buyer).transfer(amount); // Refund the buyer if false\r\n        }\r\n        isDisputed = false; // Reset the dispute flag\r\n    }\r\n}\r\n",
  "sourcePath": "D:\\vscode workspaces\\DeMarket\\smart-contracts\\contracts\\DecentralizedEscrow.sol",
  "compiler": {
    "name": "solc",
    "version": "0.8.21+commit.d9974bed.Emscripten.clang"
  },
  "schemaVersion": "3.4.16",
  "updatedAt": "2024-10-08T01:58:36.389Z",
  "devdoc": {
    "kind": "dev",
    "methods": {},
    "version": 1
  },
  "userdoc": {
    "kind": "user",
    "methods": {},
    "version": 1
  }
}